:100000000C940C010C940C100C940C100C947D0F9F
:100010000C940C100C940C100C940C100C940C10F0
:100020000C940C100C940C100C940C100C940C10E0
:100030000C940C100C940C100C940C100C940C10D0
:100040000C940C100C940C100C94030E0C940C10CB
:100050000C940C100C940C100C940C100C940C10B0
:100060000C940C100C940C100C940C100C940C10A0
:100070000C940C100C945A0C0C940C100C940C1046
:100080000C940C100C940C100C940C100C940C1080
:100090000C940C100C940C100C940C100C940C1070
:1000A0000C940C100C940C100C940C100C940C1060
:1000B0000C940C100C940C100C940C100C940C1050
:1000C0000C940C100C940C100C940C100C940C1040
:1000D0000C940C100C940C100C940C100C940C1030
:1000E0000C940C10084AD73B3BCE016E84BCBFFD7C
:1000F000C12F3D6C74319ABD56833DDA3D00C77FF8
:1001000011BED9E4BB4C3E916BAAAABE0000008090
:100110003F0002000291800291029200058F004090
:100120007A10F35A00A0724E18090010A5D4E80006
:1001300000E87648170000E40B54020000CA9A3B1E
:10014000000000E1F50500008096980000004042A4
:100150000F000000A0860100000010270000000032
:10016000E803000000006400000000000A00000036
:1001700000000100000000002C76D888DC674F08E2
:1001800023DFC1DFAE59E1B1B796E5E3E453C63AE8
:10019000E651997696E8E6C28426EB898C9B62ED5F
:1001A000407C6FFCEFBC9C9F40F2BAA56FA5F49019
:1001B000055A2AF75C936B6CF9676DC11BFCE0E490
:1001C0000D47FEF520E6B500D0ED902E03009435E6
:1001D00077050080841E080000204E0A000000C839
:1001E0000C333333330F986E12831141EF8D21148A
:1001F000893BE65516CFFEE6DB18D1844B381BF75A
:100200007C1D901DA4BBE424203284725E228100F8
:10021000C9F124ECA1E53D2711241FBECFEFD1E2A7
:10022000DEBFCDBF00E00CBFE2E1F1E041E019C06C
:10023000B791A79137912791079107FD0EC097912C
:100240008791EF01F92FE82F0BBF07900D92A217AE
:10025000B307D9F7FE011BBE04C01D92A217B30756
:10026000E1F7EE31F40721F70E9467060C9438019C
:04027000F894FFCF30
:10027400000000000000000000005F00000000001B
:10028400000007000700000000147F147F14000022
:1002940000242A7F2A12000000231308646200004D
:1002A40000364955225000000000050300000000FC
:1002B400001C2241000000000041221C000000003C
:1002C40000082A1C2A0800000008083E080800004C
:1002D40000A06000000000000008080808080000F2
:1002E400006060000000000000201008040200000C
:1002F400003E5149453E00000000427F400000009E
:100304000062514949460000002241494936000033
:10031400001814127F1000000027454545390000DD
:10032400003C4A49493000000001710905030000FE
:10033400003649494936000000064949291E000093
:1003440000003636000000000000AC6C0000000025
:1003540000081422410000000014141414140000B6
:1003640000412214080000000002015109060000A7
:1003740000324979413E0000007E0909097E0000EF
:10038400007F494949360000003E414141220000B6
:10039400007F4141221C0000007F4949494100007F
:1003A400007F090909010000003E4141517200002B
:1003B400007F0808087F000000417F410000000022
:1003C400002040413F010000007F0814224100004A
:1003D400007F404040400000007F020C027F00008C
:1003E400007F0408107F0000003E4141413E0000B0
:1003F400007F090909060000003E4151215E00000A
:10040400007F0919294600000026494949320000A5
:100414000001017F01010000003F4040403F000017
:10042400001F2040201F0000003F4038403F0000D4
:10043400006314081463000000030478040300003C
:100444000061514945430000007F41410000000024
:1004540000020408102000000041417F0000000059
:1004640000040201020400000080808080800000FB
:1004740000010204000000000020545454780000DD
:10048400007F4844443800000038444428000000F9
:1004940000384444487F0000003854545418000085
:1004A40000087E09020000000018A4A4A47C000037
:1004B400007F08040478000000007D0000000000B4
:1004C4000080847D00000000007F102844000000AC
:1004D40000417F4000000000007C04180478000004
:1004E400007C08047C00000000384444380000000C
:1004F40000FC24241800000000182424FC00000040
:1005040000007C080400000000485454240000004B
:1005140000047F4400000000003C40407C000000D8
:10052400001C2040201C0000003C4030403C0000E7
:100534000044281028440000001CA0A07C000000F7
:10054400004464544C44000000083641000000009C
:1005540000007F0000000000004136080000000099
:100564000002010102010000000205050200000072
:100574002564202564202564002564202564004129
:0B0584006D703A0050686173653A002A
:01058F0078F3
:100590002F923F924F926F927F928F929F92AF9243
:1005A000BF92CF92DF92EF92FF920F931F93CF9360
:1005B000DF93CDB7DEB762970FB6F894DEBF0FBEFC
:1005C000CDBF6C013A01862E7901FC01108617829D
:1005D000848181FFEBC19E012F5F3F4F3D872C87B8
:1005E000C901A0E8888B998BAA8B9FE3992EF30110
:1005F000582D0E94F00F862F662309F4D3C1482D91
:1006000093012F5F3F4F4F4F653219F03901842E10
:100610000BC0F901542F0E94F00F862F92E0690E53
:10062000711C811C653229F4B60190E00E94D90C3E
:10063000DECFB12C00E010E01032A0F48B3269F074
:1006400030F4803259F0833269F410612CC08D325D
:1006500039F0803339F4116026C01260146023C071
:10066000186021C017FD2AC090ED980F9A3078F4D9
:1006700016FF06C0AAE0BA9E900D1124B92E13C031
:10068000EAE00E9F900D1124092F10620CC08E32EB
:1006900021F416FD87C1106406C08C3611F4106871
:1006A00002C0883659F4F301582D0E94F00F862FAE
:1006B000FFEF6F1A7F0A8F0A6111BECF982F9F7DBF
:1006C0009554933028F424E0E20EF11C99820FC077
:1006D000833631F0833791F0833509F064C027C049
:1006E000F7018081898397012E5F3F4F7901288828
:1006F00039884A88AA24A394B12C17C0A7014D5F5A
:100700005F4F5F874E87F70120803180428016FF60
:1007100003C04B2D50E002C04FEF5FEF842DB101BD
:100720000E94D30E5C01EE84FF841F7718C09701EE
:100730002D5F3F4F3F872E87F70120803180428019
:1007400016FF03C04B2D50E002C04FEF5FEF842D2A
:10075000B1010E94D30E5C011068EE84FF8413FD8A
:100760001EC0802F90E0A816B906C8F4B60180E23A
:1007700090E00E94D90C0150F4CFF101542D0E9459
:10078000F00F862FFFEF2F1A3F0A4F0AB60190E0B5
:100790000E94D90C0111015021E0A21AB108A11444
:1007A000B10459F7F5C0843611F0893671F5F701B7
:1007B00017FF08C0608171818281938197012C5F4E
:1007C0003F4F09C060817181072E000C880B990B87
:1007D00097012E5F3F4F79011F76312E97FF0AC098
:1007E00090958095709561957F4F8F4F9F4F312FDA
:1007F0003068332E2AE030E0AE014F5F5F4F0E9439
:10080000D30A482E4C85441A4AC0853729F41F7EE6
:10081000A12E2AE030E025C0512F597FA52E8F361A
:10082000C1F018F4883579F0BDC0803719F08837E9
:1008300021F0B8C0852F8061A82EA4FE0DC09A2D8E
:100840009460A92E09C014FF0AC0A52FA660AA2E85
:1008500006C028E030E005C020E130E002C020E121
:1008600032E0F701A7FE08C0608171818281938127
:10087000A7014C5F5F4F07C06081718180E090E00D
:10088000A7014E5F5F4F7A01AE014F5F5F4F0E943D
:10089000D30A482E5C85451A8A2D8F77382E36FE6E
:1008A0000DC0932D9E7FA92E4B1458F434FE0BC01F
:1008B00032FC09C0A32DAE7EAA2E05C0142DA32C98
:1008C00003C0142D01C01B2DA4FE0EC0FE01E40DBB
:1008D000F11D8081803321F4EA2DE97EAE2E08C01F
:1008E000A2FE05C01E5F04C08A2D867809F01F5F36
:1008F000A3FC11C0A0FE06C0101788F4040DB02E92
:10090000B11A0EC0101760F4B60180E290E00E94A8
:10091000D90C1F5FF7CF101718F4011B02C0B42CBD
:1009200000E0A4FE10C0B60180E390E00E94D90C64
:10093000A2FE17C0A1FC03C088E790E002C088E5D2
:1009400090E0B6010CC08A2D867859F0A1FE02C055
:100950008BE201C080E2A7FC8DE2B60190E00E942C
:10096000D90C4B1438F4B60180E390E00E94D90C06
:10097000BA94F7CF4A94E1E0F0E0EC0FFD1FE40DEC
:10098000F11D8081B60190E00E94D90C4110F2CF98
:10099000002309F42CCEB60180E290E00E94D90C2D
:1009A0000150F6CFF6018781908502C08FEF9FEF4F
:1009B00062960FB6F894DEBF0FBECDBFDF91CF9128
:1009C0001F910F91FF90EF90DF90CF90BF90AF906D
:1009D0009F908F907F906F904F903F902F900895B1
:1009E0008F929F92AF92BF92CF92DF92EF92FF923F
:1009F0000F931F93CF93DF93CDB7DEB729970FB631
:100A0000F894DEBF0FBECDBF6A01122FB02E2BE3CC
:100A1000201720F0FF24F394F00E02C02CE3F22EF6
:100A20000F2D27E0AE014F5F5F4F0E94BB08BC0156
:100A30004981842F8970813031F0E1FC06C0E0FEED
:100A400006C090E205C09DE203C09BE201C090E0B9
:100A50005E2D507143FF3CC0911102C083E001C084
:100A600084E0811718F4212F281B01C020E05111C8
:100A70000BC0F601822F30E2882319F031938150A8
:100A8000FBCFC20ED11C20E0992329F0D6019C9304
:100A9000F60131966F01C6010396E2FE0AC03EE4FC
:100AA000D6013C9341E411964C93119712963C93D6
:100AB00006C03EE6F601308341E641833283FC0105
:100AC000322F40E2332309F442C041933150FACF30
:100AD00042FF44C0911102C083E001C084E081174D
:100AE00018F4212F281B01C020E051110BC0F60182
:100AF000822F30E2882319F031938150FBCFC20E50
:100B0000D11C20E0992329F0D6019C93F60131965F
:100B10006F01C6010396E2FE0BC039E4D6013C9397
:100B20003EE411963C93119736E412963C9307C02D
:100B300039E6F60130833EE6318336E63283FC0146
:100B4000322F40E2332319F041933150FBCFFC01A7
:100B5000E20FF11D10828EEF9FEFA6C021E030E082
:100B6000911102C020E030E0161617061CF4FB01BC
:100B7000319602C0E1E0F0E02E0F3F1FBB2021F0D4
:100B8000EB2DF0E0319602C0E0E0F0E02E0F3F1FC9
:100B9000E12FF0E02E173F071CF4121B212F01C09C
:100BA00020E08E2D887159F4F601822F30E28823DF
:100BB00019F031938150FBCFC20ED11C20E0992354
:100BC00029F0D6019C93F60131966F0151110BC0AB
:100BD000F601822F90E3882319F091938150FBCF87
:100BE000C20ED11C20E00F2D060F9A81342F3071D8
:100BF00044FF03C0913309F40150101624F4093066
:100C000018F008E001C001E0AB0177FF02C040E04E
:100C100050E0FB01E41BF50BA1E0B0E0AC0FBD1F01
:100C2000EA0FFB1F8EE2A82E4B01801A91080B2DB4
:100C300010E01195019511094F3FBFEF5B0721F4BB
:100C4000D601AC9211966D01641775072CF08416CD
:100C5000950614F4818101C080E341505109319619
:100C6000D60111967D014017510724F0D6018C93CF
:100C70006701E2CF6417750739F4963320F4953392
:100C800019F4311101C081E3F6018083F701822F4D
:100C900090E2882319F091938150FBCFF701E20F86
:100CA000F11D108280E090E029960FB6F894DEBF27
:100CB0000FBECDBFDF91CF911F910F91FF90EF90AD
:0E0CC000DF90CF90BF90AF909F908F900895DF
:100CCE00CF93DF93CDB7DEB7C757D1090FB6F894E0
:100CDE00DEBF0FBECDBF23E835E040E085E0F90171
:100CEE00DE011196742F0E94A80F28E835E040E02F
:100CFE0087E0F901DE011696742F0E94A80F0E945C
:100D0E00B40EFE013D9684E6DF011D928A95E9F749
:100D1E0040E050E060E070E0CE0101960E94150DBB
:100D2E0040E050E061E070E0CE0106960E94150DA5
:100D3E00212CE6961FAEE697E7961FAEE797E8964C
:100D4E001FAEE897E2961FAEE297E3961FAEE397CB
:100D5E00E4961FAEE497E5961FAEE59700E010E02F
:100D6E00F12CE12CD12CC12C712C312C8091000254
:100D7E008230E1F726E636E646E65FE36D2D7C2D02
:100D8E00872D932D0E9401104B015C0181E092E0B2
:100D9E000E94C607FC016081718182819381E29677
:100DAE002FADE297E3963FADE397E4964FADE49710
:100DBE00E5965FADE5970E94CD0F2DEC3CEC4CEC2B
:100DCE005DE30E9401109B01AC01C501B4010E94BC
:100DDE00CE0FD62EC72E782E392E26E636E646E6CE
:100DEE005FE3602F712F8F2D9E2D0E9401104B01FE
:100DFE005C0181E092E00E94C607DC0114966D91C1
:100E0E007D918D919C911797222DE6963FADE69799
:100E1E00E7964FADE797E8965FADE8970E94CD0F46
:100E2E002DEC3CEC4CEC5DE30E9401109B01AC01FF
:100E3E00C501B4010E94CE0F062F172FF82EE92EF2
:100E4E0040E06D2D7C2D872D932D0E944A0D41E0A3
:100E5E00602F712F8F2D9E2D0E944A0D8091900232
:100E6E008130C1F410929002202EE6961FAFE697C5
:100E7E00E796FFAEE797E896EFAEE897E296DFAE1D
:100E8E00E297E396CFAEE397E4967FAEE497E596CE
:100E9E003FAEE5970F2EF1E0AF2EF2E0BF2EF02D14
:100EAE00F50185818F9384818F9383818F938281C6
:100EBE008F9381818F9380818F930F2EF4E74F2E26
:100ECE00F5E05F2EF0E06F2EF02D6F925F924F9255
:100EDE004E01FDE08F0E911C9F928F920E947D0D10
:100EEE0040E050E063E070E0C4010E94150DD501B2
:100EFE001B968C911B978F931A968C911A978F93A2
:100F0E0019968C9119978F9318968C9118978F9399
:100F1E0017968C9117978F9316968C918F936F923D
:100F2E005F924F929F928F920E947D0D40E050E013
:100F3E0064E070E0C4010E94150DF50187858F9362
:100F4E0086858F9385858F9384858F938DE795E026
:100F5E00A0E0AF939F938F939F928F920E947D0DEF
:100F6E0040E050E065E070E0C4010E94150D109263
:0E0F7E0000020FB6F894DEBF0FBECDBFF7CE57
:100F8C004F925F926F927F928F929F92AF92BF928D
:100F9C00CF92DF92EF92FF920F931F93CF93DF9339
:100FAC00CDB7DEB72A970FB6F894DEBF0FBECDBF14
:100FBC0025E0FE013196DF01822F1D928A95E9F71B
:100FCC0091E099838FEF8B833596DF011D922A95E3
:100FDC00E9F79F838987E12CF12C812C912C54010A
:100FEC002401350100E010E045C0F701EE0FFF1FB2
:100FFC00EF5FFD4FC080D180E1E0F0E0EC0FFD1F12
:10100C00E00FF11F80818C9DB0018D9D700D11241E
:10101C00072E000C880B990B0E949E0C9B01AC01B7
:10102C00C301B2010E94CE0F2B013C01E6E0F0E0BF
:10103C00EC0FFD1FE00FF11F80818C9DB0018D9D89
:10104C00700D1124072E000C880B990B0E949E0C1E
:10105C009B01AC01C501B4010E94CD0F4B015C0199
:10106C000F5F1F4F0430110511F400E010E0BFEFCB
:10107C00EB1AFB0A80E4E816F1040CF4B6CF20E07E
:10108C0030E040EA50E4C301B2010E94011020E0BC
:10109C0030E040E85AE30E9401102B013C0120E0B3
:1010AC0030E040EA50E4C501B4010E94011020E098
:1010BC0030E040E85AE30E9401106B017C01A3016F
:1010CC009201C301B2010E9401104B015C01A70106
:1010DC009601C701B6010E9401109B01AC01C5012C
:1010EC00B4010E94CE0F0E94CF0B4B015C01A301F7
:1010FC009201C701B6010E94160C20E030E044E3D7
:10110C0053E40E9401102BED3FE049E450E40E94AF
:10111C00FD0F6B017C0120E030E040E05DE3C50198
:10112C00B4010E940110E1E8F2E0608371838283D4
:10113C009383C482D582E682F782CF012A960FB6BA
:10114C00F894DEBF0FBECDBFDF91CF911F910F91F1
:10115C00FF90EF90DF90CF90BF90AF909F908F90CB
:0A116C007F906F905F904F90089500
:10117600283008F027E03327DA01990F311D87FD63
:10118600916000966105710539F432602E5F3D93DA
:1011960030E32A95E1F708959F3F30F080387105D6
:1011A600610509F03C5F3C5F3D93913008F0806833
:1011B600911DDF93CF931F930F93FF92EF92192FF9
:1011C600987F9695E92F96959695E90FFF27E8580B
:1011D600FE4F99273327EE24FF24A701E701059048
:1011E6000894079428F4360FE71EF81E491F511D70
:1011F600660F771F881F991F0694A1F7059007941D
:1012060028F4E70EF81E491F561FC11D770F881FC9
:10121600991F661F0694A1F70590079428F4F80E07
:10122600491F561FC71FD11D880F991F661F771F9D
:101236000694A1F70590079420F4490F561FC71F7F
:10124600D81F990F661F771F881F0694A9F78491E8
:101256001095177041F0D695C79557954795F79411
:10126600E7941A95C1F7EEE1F1E0689415901591AF
:1012760035916591959105907FE27395E118F10A94
:10128600430B560BC90BD009C0F7E10CF11E431FE7
:10129600561FC91FD01D7EF4703311F48A95E6CF10
:1012A600E894015030F0080F0AF40027021708F4FA
:1012B600202F2395022F7A3328F079E37D932A9500
:1012C600E9F710C07D932A9589F606949795679558
:1012D600379517951794E118F10A430B560BC90B6E
:1012E600D00998F023957E9173957A3308F070E3D0
:1012F6007C932013B8F77E9170617D9330F08395CF
:1013060071E37D9370E32A95E1F71124EF90FF9046
:101316000F911F91CF91DF91992787FD90950895A1
:1013260010C00E94DB0F58F00E94D40F40F029F441
:101336005F3F29F00C94F70F51110C94E30F0C94B6
:1013460009100E94720E68F39923B1F3552391F3A5
:10135600951B550BBB27AA2762177307840738F01E
:101366009F5F5F4F220F331F441FAA1FA9F335D07B
:101376000E2E3AF0E0E832D091505040E695001C2F
:10138600CAF72BD0FE2F29D0660F771F881FBB1FE9
:10139600261737074807AB07B0E809F0BB0B802DC7
:1013A600BF01FF2793585F4F3AF09E3F510578F0F3
:1013B6000C94F70F0C94E30F5F3FE4F3983ED4F3DD
:1013C600869577956795B795F7959F5FC9F7880FC7
:1013D600911D9695879597F90895E1E0660F771F19
:1013E600881FBB1F621773078407BA0720F0621BAA
:0E13F600730B840BBA0BEE1F88F7E095089579
:101404000FC00E94D40F38F00E94DB0F20F0952308
:1014140011F00C94F70F0C94091011240C94E30FA1
:101424000E94720E70F3959FC1F3950F50E0551F03
:10143400629FF001729FBB27F00DB11D639FAA2725
:10144400F00DB11DAA1F649F6627B00DA11D661F74
:10145400829F2227B00DA11D621F739FB00DA11D95
:10146400621F839FA00D611D221F749F3327A00D4F
:10147400611D231F849F600D211D822F762F6A2FEB
:1014840011249F5750409AF0F1F088234AF0EE0F50
:10149400FF1FBB1F661F771F881F91505040A9F77D
:1014A4009E3F510580F00C94F70F0C94E30F5F3FBF
:1014B400E4F3983ED4F3869577956795B795F795B9
:1014C400E7959F5FC1F7FE2B880F911D9695879531
:0414D40097F90895E7
:1014D80011C00E94D40F38F00E94DB0F20F039F4BD
:1014E8009F3F19F426F40C9409100EF4E095E7FBDD
:1014F8000C94F70FE92F0E94720E58F3BA1762077F
:1015080073078407950720F079F4A6F50C94E20F89
:101518000EF4E0950B2EBA2FA02D0B01B901900106
:101528000C01CA01A0011124FF27591B99F0593F4A
:1015380050F4503E68F11A16F040A22F232F342F92
:101548004427585FF3CF469537952795A795F040E0
:101558005395C9F77EF41F16BA0B620B730B840BF5
:10156800BAF09150A1F0FF0FBB1F661F771F881FAD
:10157800C2F70EC0BA0F621F731F841F48F4879505
:1015880077956795B795F7959E3F08F0B0CF9395F7
:0E159800880F08F09927EE0F97958795089514
:1015A600FA01AA27283051F1203181F1E8946F938E
:1015B6006E7F6E5F7F4F8F4F9F4FAF4FB1E03ED034
:1015C600B4E03CD0670F781F891F9A1FA11D680FD2
:1015D600791F8A1F911DA11D6A0F711D811D911D05
:1015E600A11D20D009F468943F912AE0269F11247A
:1015F6003019305D3193DEF6CF010895462F4770DE
:10160600405D4193B3E00FD0C9F7F6CF462F4F7038
:10161600405D4A3318F0495D31FD4052419302D096
:10162600A9F7EACFB4E0A69597958795779567953C
:10163600BA95C9F700976105710508959B01AC013C
:101646000A2E06945795479537952795BA95C9F763
:0C165600620F731F841F951FA01D0895D4
:101662009C0168307105F9F038F46115710581F05B
:101672006130710591F02FC0611581E07807F9F0B2
:10168200611584E0780709F16034710521F511C014
:10169200E1E8F0E08081808322C0E1E8F0E080812F
:1016A200816080831CC0E1E8F0E0808182608083F9
:1016B20016C0E1E8F0E080818360808310C0E1E839
:1016C200F0E08081846080830AC0E1E8F0E08081FC
:1016D2008560808304C0E1E8F0E080818083E1E8F6
:1016E200F0E0908198609083309389002093880085
:1016F20030938B0020938A00EFE6F0E080818460D3
:041702008083089543
:101706008EEA0E945D0F85ED0E945D0F80E80E94C3
:101716005D0F88EA0E945D0F8FE30E945D0F83EDE7
:101726000E945D0F80E00E945D0F80E40E945D0FC5
:101736008DE80E945D0F84E10E945D0F80E20E94A9
:101746005D0F80E00E945D0F81EA0E945D0F88ECCC
:101756000E945D0F8AED0E945D0F82E10E945D0F7F
:1017660081E80E945D0F8FEC0E945D0F89ED0E945B
:101776005D0F81EF0E945D0F8BED0E945D0F80E48F
:101786000E945D0F84EA0E945D0F86EA0E945D0F4B
:081796008FEA0E945D0F089527
:10179E0006C019F416F40C9409100C949A0F0E94BA
:1017AE007A0EB8F39923C9F3B6F39F57550B87FFFB
:1017BE000E94E90F0024A0E640EA90018058569559
:1017CE00979528F4805C660F771F881F20F02617E8
:1017DE003707480730F4621B730B840B202931291D
:1017EE004A2BA69517940794202531254A2758F79A
:1017FE00660F771F881F20F026173707480730F42B
:10180E00620B730B840B200D311D411DA09581F7CA
:0E181E00B901842F9158880F969587950895EB
:10182C0013C00E94D40F60F080E891E009F49EEFA1
:10183C000E94DB0F28F040E851E071F45EEF0CC021
:10184C000C9409100C94E20FE92FE0780E94720EB0
:10185C0040F3092E052AB1F3261737074807590715
:10186C0038F00E2E07F8E02569F0E025E0640AC098
:10187C00EF6307F8009407FADB01B9019D01DC0165
:10188C00CA01AD01EF930E94A7090E944C0F0E9460
:10189C00AD0D5F91552339F02BED3FE049E450FD40
:0818AC0049EC0C94CE0F0895E5
:1018B4001F920F920FB60F9211240BB60F922F9313
:1018C4003F938F939F93EF93FF9380910002813016
:1018D40021F5209178008091790090E0982F882755
:1018E400820F911D20918D0230918E02F901EE0F2D
:1018F400FF1FEF5FFD4F91838083C9010196909391
:101904008E0280938D028034910539F410928E02F8
:1019140010928D0282E080930002FF91EF919F91DB
:101924008F913F912F910F900BBE0F900FBE0F9090
:041934001F90189553
:10193800E89409C097FB3EF4909580957095619561
:101948007F4F8F4F9F4F9923A9F0F92F96E9BB2717
:101958009395F695879577956795B795F111F8CF93
:10196800FAF4BB0F11F460FF1BC06F5F7F4F8F4FFE
:101978009F4F16C0882311F096E911C0772321F0F4
:101988009EE8872F762F05C0662371F096E8862F8C
:1019980070E060E02AF09A95660F771F881FDAF7E3
:0A19A800880F9695879597F908952A
:1019B2000F931F93CF93DF93FB01248121FD03C07B
:1019C2008FEF9FEF2CC022FF16C0478150852581E3
:1019D20036814217530744F4A081B1819D012F5FE4
:1019E2003F4F318320838C93278130852F5F3F4F78
:1019F2003087278314C08B01EC01FB010184F2853F
:101A0200E02D1995892BE1F6D80117968D919C91BD
:101A12001897019618969C938E931797CE01DF9193
:081A2200CF911F910F9108956F
:101A2A000F931F93CF93DF93EC01862F062F642F1A
:101A3A000E94200F22C08A3031F460E081E0800FDA
:101A4A000E94200F219610E015C0888190E08097AF
:101A5A00880F991F880F991F880F991FA0E08C582B
:101A6A009D4FAF4F810F911DA11DFC0184910E94D2
:101A7A006D0F1F5F183048F3219688818111DBCFE3
:0A1A8A00DF91CF911F910F91089595
:101A9400DF92EF92FF920F931F93CF93DF93CDB713
:101AA400DEB72A970FB6F894DEBF0FBECDBFD42E93
:101AB4009E012F5F3F4F79012AE0F70111922A9589
:101AC400E9F7870121E045E00E94940E6D2D70E056
:101AD40047E050E0C7010E94150D2A960FB6F8940E
:101AE400DEBF0FBECDBFDF91CF911F910F91FF904D
:061AF400EF90DF90089561
:101AFA000F931F93CF93DF93CDB7DEB72F970FB610
:101B0A00F894DEBF0FBECDBF0F89188D86E08D8396
:101B1A001A8309838FEF9FE79F838E839E01245E3A
:101B2A003F4F498D5A8D6B8DCE0101960E94C80296
:101B3A00E885F985E00FF11F10822F960FB6F89409
:101B4A00DEBF0FBECDBFDF91CF911F910F910895D8
:101B5A00DF93DD27B92FBF7740E85FE31616170634
:101B6A0048075B0718F4D92F0E94BE0F9F938F93E3
:101B7A007F936F930E940510E4EEF0E00E94DC0D63
:101B8A000E944C0F2F913F914F915F910E94020A40
:101B9A00DD2351F09058A2EA2AED3FE049EC5FE3D9
:0E1BAA00D0785D270E946C0ADF910C944C0FDE
:101BB800DF93CF931F930F93FF92EF92DF927B01F6
:101BC8008C01689406C0DA2EEF010E94020AFE0119
:101BD800E894A5912591359145915591A6F3EF018A
:101BE8000E946C0AFE019701A801DA9469F7DF9058
:0E1BF800EF90FF900F911F91CF91DF91089514
:101C06001F920F920FB60F9211248F939F9380917C
:101C16008F02843079F495B180E4892785B91092D2
:101C26008F0280910002811105C02E9B03C081E0C6
:101C36008093000280918F028F5F80938F029F9125
:0C1C46008F910F900FBE0F901F9018950B
:101C5200ECE7F0E08083908190649083EAE7F0E023
:101C62009081986A9083908197609083EBE7F0E08F
:101C720090819560908321E030E0A90102C0440F79
:101C8200551F8A95E2F7EEE7F0E040838081809568
:0A1C920080838FEF80937D0008959A
:101C9C0094EA9093BC009091BC009923E4F7909146
:101CAC00B900987F983091F48093BB0084E88093BE
:101CBC00BC008091BC008823E4F78091B900887F38
:101CCC00883131F0803231F482E0089580E008955B
:081CDC0081E0089583E0089502
:101CE40057FD9058440F551F59F05F3F71F04795C9
:101CF400880F97FB991F61F09F3F79F087950895AE
:101D0400121613061406551FF2CF4695F1DF08C0CC
:101D1400161617061806991FF1CF869571056105E9
:041D24000894089582
:101D2800EF920F931F93CF93DF93E80147FD02C013
:101D380034E001C034E1042E000C550B57FF03C0FA
:101D4800519541955109E32E022F242FAE010E948F
:101D5800F004CE01DF91CF911F910F91EF9008957C
:101D680068E070E08CE790E00E94310B80E00E9410
:101D7800290E84B1806484B985B1806485B90E94D4
:101D8800C60F88E7809391020E94EF0E0E94830B92
:0E1D98000E94360F81E00E948C0F789408950F
:101DA600CF92DF92EF926B01E82E9A01A82FCB011A
:101DB6002115310531F48C199D09EF90DF90CF90F4
:101DC6000895FC015A2F0E94F00F6623A1F3019695
:081DD600A11D21503109ECCFE1
:101DDE0081B1816081B982B1816082B92FEF83EDCB
:101DEE0090E3215080409040E1F700C0000082E176
:101DFE008093B800E9EBF0E080818C7F808385E0F2
:061E0E008093BC00089562
:101E14008093BB0084E88093BC008091BC0088233D
:101E2400E4F78091B900887F883221F0803321F46F
:0C1E340081E0089580E0089582E00895A8
:101E4000CF93C62F80550E945D0F8C2F880F880F6F
:101E5000880F88700E945D0F8C2F90E09695879573
:0C1E60008F70805F0E945D0FCF9108958D
:101E6C00CF93DF93D0E00DC060E08D2F0E94200F48
:101E7C00C0E004C080E00E946D0FCF5FCC23D4F78C
:0C1E8C00DF5FD83088F3DF91CF9108951C
:101E9800092E0394000C11F4882352F0BB0F40F470
:101EA800BF2B11F460FF04C06F5F7F4F8F4F9F4FB0
:021EB80008958B
:101EBA00CF93C82F809191020E944E0E80E00E941B
:101ECA000A0F8C2F0E940A0F0E94B60FCF91089515
:101EDA00CF93C82F809191020E944E0E80E40E94F7
:101EEA000A0F8C2F0E940A0F0E94B60FCF910895F5
:101EFA001F920F920FB60F9211248F9381E0809355
:0E1F0A0090028F910F900FBE0F901F901895B0
:101F1800CF93882311F0C0E001C0CFE981E80E9487
:0C1F28005D0F8C2F0E945D0FCF9108957B
:101F34009F3F31F0915020F4879577956795B79539
:0C1F4400880F911D9695879597F90895D8
:101F5000992777FD06C07BBF07900D920197E1F7A7
:0C1F6000089501900D920197E1F708959B
:101F6C0084E98093BC008091BC0084FDFCCF089573
:101F7C009B01AC0160E070E080E89FE30C94FD0FE6
:0E1F8C008DB384608DBB8BB184608BB90895DA
:0E1F9A005058BB27AA270E946C0A0C944C0FCB
:0E1FA80000240A941616170618060906089556
:0E1FB60000240A941216130614060506089558
:0E1FC400E894BB2766277727CB0197F908958D
:0E1FD20091505040660F771F881FD2F7089578
:0E1FE00057FD03C05BBF6791089560810895AF
:0C1FEE0097F99F6780E870E060E00895BC
:081FFA000E9493090C944C0FA6
:082002000E94020A0C944C0F2D
:08200A009B01AC010C940110D4
:062012009FEF80EC089531
:042018000C94000024
:00000001FF
