:100000000C940C010C94FE0B0C94FE0B0C94FE0B48
:100010000C94FE0B0C94FE0B0C94FE0B0C94FE0B3C
:100020000C94FE0B0C94FE0B0C94FE0B0C94FE0B2C
:100030000C94FE0B0C94FE0B0C94FE0B0C94FE0B1C
:100040000C94FE0B0C94FE0B0C947B0A0C94FE0B90
:100050000C94FE0B0C94FE0B0C94FE0B0C94FE0BFC
:100060000C94FE0B0C94FE0B0C94FE0B0C94FE0BEC
:100070000C94FE0B0C94F5080C94FE0B0C94FE0BE8
:100080000C94FE0B0C94FE0B0C94FE0B0C94FE0BCC
:100090000C94FE0B0C94FE0B0C94FE0B0C94FE0BBC
:1000A0000C94FE0B0C94FE0B0C94FE0B0C94FE0BAC
:1000B0000C94FE0B0C94FE0B0C94FE0B0C94FE0B9C
:1000C0000C94FE0B0C94FE0B0C94FE0B0C94FE0B8C
:1000D0000C94FE0B0C94FE0B0C94FE0B0C94FE0B7C
:1000E0000C94FE0B084AD73B3BCE016E84BCBFFD8F
:1000F000C12F3D6C74319ABD56833DDA3D00C77FF8
:1001000011BED9E4BB4C3E916BAAAABE0000008090
:100110003F0002000290800290029100180000400F
:100120007A10F35A00A0724E18090010A5D4E80006
:1001300000E87648170000E40B54020000CA9A3B1E
:10014000000000E1F50500008096980000004042A4
:100150000F000000A0860100000010270000000032
:10016000E803000000006400000000000A00000036
:1001700000000100000000002C76D888DC674F08E2
:1001800023DFC1DFAE59E1B1B796E5E3E453C63AE8
:10019000E651997696E8E6C28426EB898C9B62ED5F
:1001A000407C6FFCEFBC9C9F40F2BAA56FA5F49019
:1001B000055A2AF75C936B6CF9676DC11BFCE0E490
:1001C0000D47FEF520E6B500D0ED902E03009435E6
:1001D00077050080841E080000204E0A000000C839
:1001E0000C333333330F986E12831141EF8D21148A
:1001F000893BE65516CFFEE6DB18D1844B381BF75A
:100200007C1D901DA4BBE424203284725E228100F8
:10021000C9F124ECA1E53D2711241FBECFEFD1E2A7
:10022000DEBFCDBF00E00CBFE2E1F1E041E019C06C
:10023000B791A79137912791079107FD0EC097912C
:100240008791EF01F92FE82F0BBF07900D92A217AE
:10025000B307D9F7FE011BBE04C01D92A217B30756
:10026000E1F7EE31F40721F70E9404060C943801FF
:04027000F894FFCF30
:10027400000000000000000000005F00000000001B
:10028400000007000700000000147F147F14000022
:1002940000242A7F2A12000000231308646200004D
:1002A40000364955225000000000050300000000FC
:1002B400001C2241000000000041221C000000003C
:1002C40000082A1C2A0800000008083E080800004C
:1002D40000A06000000000000008080808080000F2
:1002E400006060000000000000201008040200000C
:1002F400003E5149453E00000000427F400000009E
:100304000062514949460000002241494936000033
:10031400001814127F1000000027454545390000DD
:10032400003C4A49493000000001710905030000FE
:10033400003649494936000000064949291E000093
:1003440000003636000000000000AC6C0000000025
:1003540000081422410000000014141414140000B6
:1003640000412214080000000002015109060000A7
:1003740000324979413E0000007E0909097E0000EF
:10038400007F494949360000003E414141220000B6
:10039400007F4141221C0000007F4949494100007F
:1003A400007F090909010000003E4141517200002B
:1003B400007F0808087F000000417F410000000022
:1003C400002040413F010000007F0814224100004A
:1003D400007F404040400000007F020C027F00008C
:1003E400007F0408107F0000003E4141413E0000B0
:1003F400007F090909060000003E4151215E00000A
:10040400007F0919294600000026494949320000A5
:100414000001017F01010000003F4040403F000017
:10042400001F2040201F0000003F4038403F0000D4
:10043400006314081463000000030478040300003C
:100444000061514945430000007F41410000000024
:1004540000020408102000000041417F0000000059
:1004640000040201020400000080808080800000FB
:1004740000010204000000000020545454780000DD
:10048400007F4844443800000038444428000000F9
:1004940000384444487F0000003854545418000085
:1004A40000087E09020000000018A4A4A47C000037
:1004B400007F08040478000000007D0000000000B4
:1004C4000080847D00000000007F102844000000AC
:1004D40000417F4000000000007C04180478000004
:1004E400007C08047C00000000384444380000000C
:1004F40000FC24241800000000182424FC00000040
:1005040000007C080400000000485454240000004B
:1005140000047F4400000000003C40407C000000D8
:10052400001C2040201C0000003C4030403C0000E7
:100534000044281028440000001CA0A07C000000F7
:10054400004464544C44000000083641000000009C
:1005540000007F0000000000004136080000000099
:100564000002010102010000000205050200000072
:0C057400416D703A0050686173653A00F8
:100580008F929F92AF92BF92CF92DF92EF92FF92A3
:100590000F931F93CF93DF93CDB7DEB729970FB695
:1005A000F894DEBF0FBECDBF6A01122FB02E2BE331
:1005B000201720F0FF24F394F00E02C02CE3F22E5B
:1005C0000F2D27E0AE014F5F5F4F0E942C05BC014D
:1005D0004981842F8970813031F0E1FC06C0E0FE52
:1005E00006C090E205C09DE203C09BE201C090E01E
:1005F0005E2D507143FF3CC0911102C083E001C0E9
:1006000084E0811718F4212F281B01C020E051112C
:100610000BC0F601822F30E2882319F0319381500C
:10062000FBCFC20ED11C20E0992329F0D6019C9368
:10063000F60131966F01C6010396E2FE0AC03EE460
:10064000D6013C9341E411964C93119712963C933A
:1006500006C03EE6F601308341E641833283FC0169
:10066000322F40E2332309F442C041933150FACF94
:1006700042FF44C0911102C083E001C084E08117B1
:1006800018F4212F281B01C020E051110BC0F601E6
:10069000822F30E2882319F031938150FBCFC20EB4
:1006A000D11C20E0992329F0D6019C93F6013196C4
:1006B0006F01C6010396E2FE0BC039E4D6013C93FC
:1006C0003EE411963C93119736E412963C9307C092
:1006D00039E6F60130833EE6318336E63283FC01AB
:1006E000322F40E2332319F041933150FBCFFC010C
:1006F000E20FF11D10828EEF9FEFA6C021E030E0E7
:10070000911102C020E030E0161617061CF4FB0120
:10071000319602C0E1E0F0E02E0F3F1FBB2021F038
:10072000EB2DF0E0319602C0E0E0F0E02E0F3F1F2D
:10073000E12FF0E02E173F071CF4121B212F01C000
:1007400020E08E2D887159F4F601822F30E2882343
:1007500019F031938150FBCFC20ED11C20E09923B8
:1007600029F0D6019C93F60131966F0151110BC00F
:10077000F601822F90E3882319F091938150FBCFEB
:10078000C20ED11C20E00F2D060F9A81342F30713C
:1007900044FF03C0913309F40150101624F40930CA
:1007A00018F008E001C001E0AB0177FF02C040E0B3
:1007B00050E0FB01E41BF50BA1E0B0E0AC0FBD1F66
:1007C000EA0FFB1F8EE2A82E4B01801A91080B2D19
:1007D00010E01195019511094F3FBFEF5B0721F420
:1007E000D601AC9211966D01641775072CF0841632
:1007F000950614F4818101C080E34150510931967E
:10080000D60111967D014017510724F0D6018C9333
:100810006701E2CF6417750739F4963320F49533F6
:1008200019F4311101C081E3F6018083F701822FB1
:1008300090E2882319F091938150FBCFF701E20FEA
:10084000F11D108280E090E029960FB6F894DEBF8B
:100850000FBECDBFDF91CF911F910F91FF90EF9011
:0E086000DF90CF90BF90AF909F908F90089543
:10086E004F925F926F927F928F929F92AF92BF92B2
:10087E00CF92DF92EF92FF920F931F93CF93DF935E
:10088E00CDB7DEB72A970FB6F894DEBF0FBECDBF39
:10089E0025E0FE013196DF01822F1D928A95E9F740
:1008AE0091E099838FEF8B833596DF011D922A9508
:1008BE00E9F79F838987E12CF12C812C912C54012F
:1008CE002401350100E010E045C0F701EE0FFF1FD7
:1008DE00EF5FFD4FC080D180E1E0F0E0EC0FFD1F37
:1008EE00E00FF11F80818C9DB0018D9D700D112444
:1008FE00072E000C880B990B0E9439099B01AC0145
:10090E00C301B2010E94C70B2B013C01E6E0F0E0EF
:10091E00EC0FFD1FE00FF11F80818C9DB0018D9DAE
:10092E00700D1124072E000C880B990B0E943909AB
:10093E009B01AC01C501B4010E94C60B4B015C01C9
:10094E000F5F1F4F0430110511F400E010E0BFEFF0
:10095E00EB1AFB0A80E4E816F1040CF4B6CF20E0A3
:10096E0030E040EA50E4C301B2010E94F30B20E0F4
:10097E0030E040E85AE30E94F30B2B013C0120E0EB
:10098E0030E040EA50E4C501B4010E94F30B20E0D0
:10099E0030E040E85AE30E94F30B6B017C01A301A7
:1009AE009201C301B2010E94F30B4B015C01A7013E
:1009BE009601C701B6010E94F30B9B01AC01C50164
:1009CE00B4010E94C70B0E946A084B015C01A3018F
:1009DE009201C701B6010E94B10820E030E044E365
:1009EE0053E40E94F30B2BED3FE049E450E40E94E8
:1009FE00EF0B6B017C0120E030E040E05DE3C501D0
:100A0E00B4010E94F30BE1E8F2E06083718382830C
:100A1E009383C482D582E682F782CF012A960FB6DF
:100A2E00F894DEBF0FBECDBFDF91CF911F910F9116
:100A3E00FF90EF90DF90CF90BF90AF909F908F90F0
:0A0A4E007F906F905F904F90089525
:100A5800283008F027E03327DA01990F311D87FD88
:100A6800916000966105710539F432602E5F3D93FF
:100A780030E32A95E1F708959F3F30F080387105FB
:100A8800610509F03C5F3C5F3D93913008F0806858
:100A9800911DDF93CF931F930F93FF92EF92192F1E
:100AA800987F9695E92F96959695E90FFF27E85830
:100AB800FE4F99273327EE24FF24A701E70105906D
:100AC8000894079428F4360FE71EF81E491F511D95
:100AD800660F771F881F991F0694A1F70590079442
:100AE80028F4E70EF81E491F561FC11D770F881FEF
:100AF800991F661F0694A1F70590079428F4F80E2D
:100B0800491F561FC71FD11D880F991F661F771FC2
:100B18000694A1F70590079420F4490F561FC71FA4
:100B2800D81F990F661F771F881F0694A9F784910D
:100B38001095177041F0D695C79557954795F79436
:100B4800E7941A95C1F7EEE1F1E0689415901591D4
:100B580035916591959105907FE27395E118F10AB9
:100B6800430B560BC90BD009C0F7E10CF11E431F0C
:100B7800561FC91FD01D7EF4703311F48A95E6CF35
:100B8800E894015030F0080F0AF40027021708F41F
:100B9800202F2395022F7A3328F079E37D932A9525
:100BA800E9F710C07D932A9589F60694979567957D
:100BB800379517951794E118F10A430B560BC90B93
:100BC800D00998F023957E9173957A3308F070E3F5
:100BD8007C932013B8F77E9170617D9330F08395F4
:100BE80071E37D9370E32A95E1F71124EF90FF906C
:100BF8000F911F91CF91DF91992787FD90950895C7
:100C0800CF93DF93CDB7DEB72C970FB6F894DEBF3E
:100C18000FBECDBF24E735E040E085E0F901DE01F5
:100C28001196742F0E94A80B29E735E040E087E071
:100C3800F901DE011696742F0E94A80B0E94E10AA2
:100C480040E050E060E070E0CE0101960E94740937
:100C580040E050E061E070E0CE0106960E94740921
:100C6800812C912C5401750164018091000282301D
:100C7800E1F726E636E646E65FE3C701B6010E94DD
:100C8800F30B6B017C0181E092E00E943704FC01C8
:100C980060817181828193812DEC3CEC4CEC5DE3A9
:100CA8000E94F30B9B01AC01C701B6010E94C70B60
:100CB8006B017C0126E636E646E65FE3C501B40132
:100CC8000E94F30B4B015C0181E092E00E94370423
:100CD800FC0164817581868197812DEC3CEC4CEC9C
:100CE8005DE30E94F30B9B01AC01C501B4010E94B6
:100CF800C70B4B015C0140E0C701B6010E94A9097E
:100D080041E0C501B4010E94A90910920002ADCFCB
:100D180010C00E94D40B58F00E94CD0B40F029F46B
:100D28005F3F29F00C94E90B51110C94DC0B0C94E7
:100D3800FB0B0E949F0A68F39923B1F3552391F3A3
:100D4800951B550BBB27AA2762177307840738F032
:100D58009F5F5F4F220F331F441FAA1FA9F335D08F
:100D68000E2E3AF0E0E832D091505040E695001C43
:100D7800CAF72BD0FE2F29D0660F771F881FBB1FFD
:100D8800261737074807AB07B0E809F0BB0B802DDB
:100D9800BF01FF2793585F4F3AF09E3F510578F007
:100DA8000C94E90B0C94DC0B5F3FE4F3983ED4F30E
:100DB800869577956795B795F7959F5FC9F7880FDB
:100DC800911D9695879597F90895E1E0660F771F2D
:100DD800881FBB1F621773078407BA0720F0621BBE
:0E0DE800730B840BBA0BEE1F88F7E09508958D
:100DF6000FC00E94CD0B38F00E94D40B20F0952333
:100E060011F00C94E90B0C94FB0B11240C94DC0BE5
:100E16000E949F0A70F3959FC1F3950F50E0551FEE
:100E2600629FF001729FBB27F00DB11D639FAA2739
:100E3600F00DB11DAA1F649F6627B00DA11D661F88
:100E4600829F2227B00DA11D621F739FB00DA11DA9
:100E5600621F839FA00D611D221F749F3327A00D63
:100E6600611D231F849F600D211D822F762F6A2FFF
:100E760011249F5750409AF0F1F088234AF0EE0F64
:100E8600FF1FBB1F661F771F881F91505040A9F791
:100E96009E3F510580F00C94E90B0C94DC0B5F3FF0
:100EA600E4F3983ED4F3869577956795B795F795CD
:100EB600E7959F5FC1F7FE2B880F911D9695879545
:040EC60097F90895FB
:100ECA0011C00E94CD0B38F00E94D40B20F039F4E7
:100EDA009F3F19F426F40C94FB0B0EF4E095E7FB04
:100EEA000C94E90BE92F0E949F0A58F3BA1762077C
:100EFA0073078407950720F079F4A6F50C94DB0BA9
:100F0A000EF4E0950B2EBA2FA02D0B01B90190011A
:100F1A000C01CA01A0011124FF27591B99F0593F5E
:100F2A0050F4503E68F11A16F040A22F232F342FA6
:100F3A004427585FF3CF469537952795A795F040F4
:100F4A005395C9F77EF41F16BA0B620B730B840B09
:100F5A00BAF09150A1F0FF0FBB1F661F771F881FC1
:100F6A00C2F70EC0BA0F621F731F841F48F4879519
:100F7A0077956795B795F7959E3F08F0B0CF93950B
:0E0F8A00880F08F09927EE0F97958795089528
:100F98009C0168307105F9F038F46115710581F02C
:100FA8006130710591F02FC0611581E07807F9F083
:100FB800611584E0780709F16034710521F511C0E5
:100FC800E1E8F0E08081808322C0E1E8F0E0808100
:100FD800816080831CC0E1E8F0E0808182608083CA
:100FE80016C0E1E8F0E080818360808310C0E1E80A
:100FF800F0E08081846080830AC0E1E8F0E08081CD
:101008008560808304C0E1E8F0E080818083E1E8C6
:10101800F0E0908198609083309389002093880055
:1010280030938B0020938A00EFE6F0E080818460A3
:041038008083089514
:10103C008EEA0E946C0B85ED0E946C0B80E80E947E
:10104C006C0B88EA0E946C0B8FE30E946C0B83ED97
:10105C000E946C0B80E00E946C0B80E40E946C0B75
:10106C008DE80E946C0B84E10E946C0B80E20E9464
:10107C006C0B80E00E946C0B81EA0E946C0B88EC7C
:10108C000E946C0B8AED0E946C0B82E10E946C0B2F
:10109C0081E80E946C0B8FEC0E946C0B89ED0E9416
:1010AC006C0B81EF0E946C0B8BED0E946C0B80E43F
:1010BC000E946C0B84EA0E946C0B86EA0E946C0BFB
:0810CC008FEA0E946C0B0895ED
:1010D40006C019F416F40C94FB0B0C949A0B0E94A2
:1010E400A70AB8F39923C9F3B6F39F57550B87FFA3
:1010F4000E94E20B0024A0E640EA90018058569535
:10110400979528F4805C660F771F881F20F02617B8
:101114003707480730F4621B730B840B20293129ED
:101124004A2BA69517940794202531254A2758F76A
:10113400660F771F881F20F026173707480730F4FB
:10114400620B730B840B200D311D411DA09581F79B
:0E115400B901842F9158880F969587950895BC
:1011620013C00E94CD0B60F080E891E009F49EEF7D
:101172000E94D40B28F040E851E071F45EEF0CC0FD
:101182000C94FB0B0C94DB0BE92FE0780E949F0A76
:1011920040F3092E052AB1F32617370748075907E6
:1011A20038F00E2E07F8E02569F0E025E0640AC069
:1011B200EF6307F8009407FADB01B9019D01DC0136
:1011C200CA01AD01EF930E94A0060E945B0B0E9430
:1011D200DC095F91552339F02BED3FE049E450FDE6
:0811E20049EC0C94C70B0895C1
:1011EA001F920F920FB60F9211240BB60F922F93E4
:1011FA003F938F939F93EF93FF93809100028130E7
:10120A0021F5209178008091790090E0982F882725
:10121A00820F911D20918D0230918E02F901EE0FFD
:10122A00FF1FEF5FFD4F91838083C9010196909361
:10123A008E0280938D028034910539F410928E02C9
:10124A0010928D0282E080930002FF91EF919F91AC
:10125A008F913F912F910F900BBE0F900FBE0F9061
:04126A001F90189524
:10126E00E89409C097FB3EF4909580957095619532
:10127E007F4F8F4F9F4F9923A9F0F92F96E9BB27E8
:10128E009395F695879577956795B795F111F8CF64
:10129E00FAF4BB0F11F460FF1BC06F5F7F4F8F4FCF
:1012AE009F4F16C0882311F096E911C0772321F0C5
:1012BE009EE8872F762F05C0662371F096E8862F5D
:1012CE0070E060E02AF09A95660F771F881FDAF7B4
:0A12DE00880F9695879597F90895FB
:1012E8000F931F93CF93DF93EC01862F062F642F64
:1012F8000E942F0B22C08A3031F460E081E0800F19
:101308000E942F0B219610E015C0888190E08097ED
:10131800880F991F880F991F880F991FA0E08C5874
:101328009D4FAF4F810F911DA11DFC0184910E941B
:101338007C0B1F5F183048F3219688818111DBCF21
:0A134800DF91CF911F910F910895DE
:10135200DF92EF92FF920F931F93CF93DF93CDB75C
:10136200DEB72A970FB6F894DEBF0FBECDBFD42EDC
:101372009E012F5F3F4F79012AE0F70111922A95D2
:10138200E9F7870121E045E00E94C10A6D2D70E076
:1013920047E050E0C7010E9474092A960FB6F894FC
:1013A200DEBF0FBECDBFDF91CF911F910F91FF9096
:0613B200EF90DF900895AA
:1013B800DF93DD27B92FBF7740E85FE316161706DE
:1013C80048075B0718F4D92F0E94BE0B9F938F9391
:1013D8007F936F930E94F70BE4EEF0E00E940B0AF4
:1013E8000E945B0B2F913F914F915F910E94FB06EA
:1013F800DD2351F09058A2EA2AED3FE049EC5FE383
:0E140800D0785D270E946507DF910C945B0B86
:10141600DF93CF931F930F93FF92EF92DF927B019F
:101426008C01689406C0DA2EEF010E94FB06FE01CD
:10143600E894A5912591359145915591A6F3EF0133
:101446000E946507FE019701A801DA9469F7DF900B
:0E145600EF90FF900F911F91CF91DF910895BD
:10146400ECE7F0E08083908190649083EAE7F0E019
:101474009081986A9083908197609083EBE7F0E085
:1014840090819560908321E030E0A90102C0440F6F
:10149400551F8A95E2F7EEE7F0E04083808180955E
:0A14A40080838FEF80937D00089590
:1014AE0094EA9093BC009091BC009923E4F790913C
:1014BE00B900987F983091F48093BB0084E88093B4
:1014CE00BC008091BC008823E4F78091B900887F2E
:1014DE00883131F0803231F482E0089580E0089551
:0814EE0081E0089583E00895F8
:1014F6001F920F920FB60F9211248F939F93809194
:101506008F02843069F495B180E4892785B91092F9
:101516008F0280910002811103C081E08093000256
:1015260080918F028F5F80938F029F918F910F9092
:081536000FBE0F901F901895E5
:10153E0057FD9058440F551F59F05F3F71F0479576
:10154E00880F97FB991F61F09F3F79F0879508955B
:10155E00121613061406551FF2CF4695F1DF08C07A
:10156E00161617061806991FF1CF86957105610597
:04157E000894089530
:10158200EF920F931F93CF93DF93E80147FD02C0C1
:1015920034E001C034E1042E000C550B57FF03C0A8
:1015A200519541955109E32E022F242FAE010E943D
:1015B200C002CE01DF91CF911F910F91EF9008955C
:1015C20068E070E08CE790E00E94CC0780E00E9427
:1015D200320A84B1806484B985B1806685B988E7AE
:1015E200809390020E94FE0A0E941E080E94450BF0
:0A15F20081E00E948C0B78940895AC
:1015FC0081B1816081B982B1816082B92FEF83EDB5
:10160C0090E3215080409040E1F700C0000082E15F
:10161C008093B800E9EBF0E080818C7F808385E0DB
:06162C008093BC0008954C
:101632008093BB0084E88093BC008091BC00882327
:10164200E4F78091B900887F883221F0803321F459
:0C16520081E0089580E0089582E0089592
:10165E00CF93C62F80550E946C0B8C2F880F880F4E
:10166E00880F88700E946C0B8C2F90E09695879552
:0C167E008F70805F0E946C0BCF9108956C
:10168A00CF93DF93D0E00DC060E08D2F0E942F0B27
:10169A00C0E004C080E00E947C0BCF5FCC23D4F76B
:0C16AA00DF5FD83088F3DF91CF91089506
:1016B600092E0394000C11F4882352F0BB0F40F45A
:1016C600BF2B11F460FF04C06F5F7F4F8F4F9F4F9A
:0216D600089575
:1016D800CF93C82F809190020E94570A80E00E9401
:1016E800190B8C2F0E94190B0E94B60BCF910895ED
:1016F800CF93C82F809190020E94570A80E40E94DD
:10170800190B8C2F0E94190B0E94B60BCF910895CC
:10171800CF93882311F0C0E001C0CFE981E80E948F
:0C1728006C0B8C2F0E946C0BCF9108956D
:101734009F3F31F0915020F4879577956795B79541
:0C174400880F911D9695879597F90895E0
:10175000992777FD06C07BBF07900D920197E1F7AF
:0C176000089501900D920197E1F70895A3
:10176C0084E98093BC008091BC0084FDFCCF08957B
:10177C009B01AC0160E070E080E89FE30C94EF0B00
:0E178C005058BB27AA270E9465070C945B0BE0
:0E179A0000240A94161617061806090608956C
:0E17A80000240A94121613061406050608956E
:0E17B600E894BB2766277727CB0197F90895A3
:0E17C40091505040660F771F881FD2F708958E
:0C17D20097F99F6780E870E060E00895E0
:0817DE000E948C060C945B0BC9
:0817E6000E94FB060C945B0B52
:0817EE009B01AC010C94F30B0C
:0617F6009FEF80EC089556
:0417FC000C94000049
:01180000786F
:00000001FF
